:0200000470008A
:022004000101D8
:020000041F00DB
:100800007E223D2200228000FE0120040400200000
:100810007E22422200228000FE00200404002000EC
:100820007E224422002280007E002004040020005A
:100830007E22302200228000FE00200404002000DE
:100840007E223122002280007E002004040020004D
:100850007E223222002280003E002004040020007C
:100860007E222322012280000002000000001000EE
:100870007E222222012280000001000000001000E0
:100880007E22212201228000800000000000100052
:100890007E221022012240007F0008080000100084
:1008A0007E221022002240007F0008000800100075
:1008B0007E221A22012240003F000808000010009A
:1008C0007E221A22002240003F000800080010008B
:1008D0007E2D2F2D002D8000FF0020040000200021
:1008E0007E2C352C002C80007F002004000020008E
:1008F0007E2B332B002B40007F00100400002000D3
:100900007E303F3000308000FF00200400002000D7
:100910007E31413100318000FF00200400002000C2
:100920007E324332003280007F002004000020002D
:100930007E22202200224000FE000808080001005C
:100940007E220222012240007E00080808000100E9
:100950007E220A22012240003E0008080800010011
:100960007E341834033440007F001004000020005F
:100970007E341834043440007F001000040020004E
:100980007E351935033540003F001004000020007B
:100990007E351935043540003F001000040020006A
:1009A0007E36203603364000200010040000200070
:1009B0007E3620360436400020001000040020005F
:1009C0007E006300010080007F0020040000200002
:1009D0007E006500010080007F00200004002000F0
:1009E0007E00640001008000FF0020040000200061
:1009F0007E00660001008000FF002000040020004F
:100A00005A970000000040003F0010040000010061
:100A10005B970000000040003F0010000400010050
:100A20004B970000000040001E001004040001006D
:100A300001890000000000018000000000000002A9
:100A40000489000000000001800000000000000296
:100A50007E8800000000000100010000000000028C
:100A60008188000000000001000100000000000279
:100A700074880000000040007F00080800000100AA
:100A800075880000000040007F0008000800010099
:100A900052880000000040003F00080800000100EC
:100AA0001C88000000008000FF00200400000100FE
:100AB0001D88000000008000FF00200004000100ED
:100AC0002E880000000080007F002004000001004C
:100AD0002F880000000080007F002000040001003B
:100AE000C0880000000040007F00080800000100EE
:100AF000C1880000000040007F00080008000100DD
:100B000040880000000040007F000808000001004D
:100B100028880000000040003F0008080000010095
:100B20008D000000000080003F0020000400200035
:100B30001B000000000080007F0020000400200057
:100B40008B000000000080003F0020000400200017
:100B50000524000000004000FF000800080001001C
:100B60000424000000004000FF000808000001000D
:100B70007E250000000040007E00080808000100FB
:100B800054220000000040007F000808000001001F
:100B900055220000000040007F000800080001000E
:100BA00006260000000040003F0008000800010089
:100BB00007260000000040003F0008080000010078
:100BC00096000000000040007F00080800000100BF
:100BD0000000000000000000000000000000000015
:100BE0000000001F464C415348204E4F52203136E2
:100BF00020426974732056322E362E3200020101D3
:040C00002C0C001F99
:020000041F409B
:10000000D300A0E300F02FE134D09FE5100F11EEF4
:100010000510A0E30100C0E1010A80E3100F01EE2A
:1000200020109FE520009FE5001081E00020A0E364
:10003000010050E104208034FCFFFF3A0CE09FE512
:100040001EFF2FE10C11001F0C050000040C001F07
:10005000FC1B401F202052E210402DE90500003A11
:100060001850B1281850A0281850B1281850A028AE
:1000700020205222F9FFFF2A02CEB0E11850B12809
:100080001850A0281800B1481800A04802CFB0E1CD
:100090001040BDE804309124043080241EFF2F015D
:1000A000822FB0E10120D1440130D12401C0D124FC
:1000B0000120C0440130C02401C0C0241EFF2FE134
:1000C00001C05EE50C0053E10330DE370C30DE2763
:1000D00083C08EE01CFF2FE1FE402DE90060A0E10F
:1000E0000000E0E308008DE50000A0E35C409FE530
:1000F00004008DE50100A0E10150A0E1081094E5A5
:1001000031FF2FE1102094E50010A0E30500A0E1ED
:1001100032FF2FE10330A0E300308DE514C094E5F9
:1001200004308DE208208DE20010A0E30500A0E17C
:100130003CFF2FE1010050E30300000A4510A0E35B
:100140000600A0E16F0600FAFBFFFFEAFE80BDE8B3
:10015000080C001F70402DE90060A0E10000A0E342
:100160000250A0E10040A0E3A30050E10700002AF4
:10017000B020D1E1B0C0D1E1FF2002E2022084E052
:100180002C4482E0021081E2010080E2F5FFFFEAE8
:10019000FF1004E20600A0E15A0600FA0408A0E1FC
:1001A000201CA0E10600A0E1560600FA0404A0E12C
:1001B000201CA0E10600A0E1520600FA241CA0E1E8
:1001C0000600A0E14F0600FA050054E10600A00178
:1001D0007040BD083010A0034806000A4310A0E399
:1001E0000600A0E1470600FAFBFFFFEAF84F2DE901
:1001F00000B0A0E1020081E040A19FE5016040E283
:100200000000A0E30150A0E100008AE520109AE57B
:100210000270A0E1B620D1E10A10D1E50000CDE5E1
:100220000100CDE50100A0E30300CDE50200A0E35D
:100230000185A0E10200CDE50A00A0E30D10A0E1D8
:100240000942A0E30295A0E1F00200FA0A00A0E34F
:10025000620300FA090255E3000057030900001A7F
:1002600020009AE50B10D0E50C20D0E5021081E0CB
:10027000B620D0E1B800D0E1980101E0920000E0A2
:10028000000581E0176240E20070A0E3070000EA89
:10029000040055E1060054910820A0910410A0919B
:1002A0000B00A0918BFFFF9B084084E0017087E268
:1002B00020009AE50C00D0E5070050E1F3FFFF8A2B
:1002C0000070A0E3070000EA040055E10600549125
:1002D0000920A0910410A0910B00A0917DFFFF9B2D
:1002E000094084E0017087E220009AE5B800D0E17F
:1002F000070050E1F3FFFF8A0070A0E3070000EA67
:10030000040055E1060054910820A0910410A0912A
:100310000B00A0916FFFFF9B084084E0017087E213
:1003200020009AE50B00D0E5070050E1F3FFFF8ABB
:100330000B00A0E1F84FBDE83010A0E3EF0500EAA4
:10034000080C001FF04F2DE900B0A0E10000A0E371
:100350001CD04DE21800CDE51900CDE50100A0E369
:100360001B00CDE50200A0E30160A0E1F8129FE5CB
:100370001A00CDE50A0C86E2BA1AC0E1EC229FE52C
:10038000C110A0E1B61082E1E4129FE5BA1AC0E103
:10039000B040D6E1010054E3BF005413B000541341
:1003A0008900541320005413EC0054139800541384
:1003B0001700001AB250D6E1BC71D6E1BE81D6E179
:1003C000B0929FE5B0A29FE5EC0054E30600A001C7
:1003D0000C908A056B06000BFF1004E20B00A0E1F5
:1003E000C80500FA2414A0E10B00A0E1C50500FA3D
:1003F000FF1005E20B00A0E1C20500FA2514A0E100
:100400000B00A0E1BF0500FA70029FE50A20A0E101
:100410000E0000EA5410A0E30B00A0E1B90500FAB9
:10042000FBFFFFEA050051E10700001AB210D0E11E
:10043000000051E3070051110300001AB410D0E18D
:10044000000051E3080051110500000A100080E28D
:10045000200082E5B010D0E1000051E3F0FFFF1A68
:10046000040000EA200092E50280A0E1B000D0E1A3
:10047000000050E30300001A5410A0E30B00A0E1B9
:10048000A00500FAFBFFFFEA010054E302CA47029D
:1004900023CE5C020A00001A04108DE22E00A0E3B5
:1004A000BE0200FA04009DE5041030E50C209DE535
:1004B0000210C1E1001080E50C009DE510109DE5E3
:1004C000000081E5B8019FE5BC119FE5040088E5C7
:1004D000B0019FE5010054E31000001A36CC45E25C
:1004E0007EC05CE235CC45127EC05C120DCB45125D
:1004F0007EC05C127E0055130B00001A8C219FE514
:10050000082088E588219FE5102088E584219FE563
:100510000C2088E580219FE5142088E53D0000EA55
:10052000BF0054E3EC0054130E00001A6C019FE569
:10053000BF0054E3080088E564019FE5100088E5EA
:1005400060019FE5140088E55C019FE5181088E5CF
:100550001C0088E554019F050C9088E5080088057B
:100560003C00000A0F0000EAB00054E38900541375
:10057000200054131E00001A34019FE5080088E58E
:1005800030019FE5100088E52C019FE50C0088E50F
:1005900028019FE5140088E524019FE5180088E5FF
:1005A00020019FE51C0088E5200054E318019F0509
:1005B000180088052700000A890054E31800001A73
:1005C00089CC45E201C05CE222CB451241CF5C12EE
:1005D00022CB45127EC05C1222CB451281C05C1238
:1005E0001C00001AE4009FE5180088E5E0009FE584
:1005F000090000EA980054E31600001AD4109FE5A1
:10060000101088E5D0109FE50C1088E5CC109FE510
:10061000141088E5C8109FE5181088E51C0088E5CF
:100620000C0000EAEC0054E30A00001A02CA45E29A
:1006300095CF5CE222CC451255C05C1226CC451207
:1006400006C05C1226CC451207C05C1294009F05C0
:1006500094009F15080088E50C1098E51CD08DE2E9
:100660000600A0E1F04FBDE811FF2FE1AAAA0000AB
:100670005405000090900000911D401F080C001FC1
:100680000008001F000000A0EF12401F5D1D401F6A
:100690003512401FD912401FCD12401F5112401F6A
:1006A000A11C401F9D1D401FDD1C401F911E401FAF
:1006B0004D1F401F5111401FF111401FE111401FFC
:1006C0006911401FD111401F0512401F3F13401FE9
:1006D000F90F401F0910401F711A401F651A401F73
:1006E000D519401F3D1A401F011F401FE91E401F22
:1006F00070402DE90140A0E11610A0E30060A0E1E8
:100700000050A0E3FF0400FA0410A0E10600A0E1FD
:100710000BFFFFEB0400A0E168409FE50C1094E59F
:1007200031FF2FE1200094E5B610D0E1B820D0E1F0
:100730000B30D0E5910202E00A10D0E50C00D0E5C4
:10074000812302E1812000E10510A0E10045A0E144
:100750000600A0E1EB0400FA0408A0E1201CA0E1DF
:100760000600A0E1E70400FA0404A0E1201CA0E1D7
:100770000600A0E1E30400FA241CA0E10600A0E1C9
:100780007040BDE8DD0400EA080C001FF0472DE9C9
:10079000010053E30080A0E10800A0010270A0E185
:1007A0000050A0E30140A0E1E5FEFF0B38009FE50B
:1007B000046090E50690A0E1080000EAB200D4E0F1
:1007C000B000C9E10010D6E50800A0E1CD0400FAB0
:1007D0000110D6E50800A0E1CA0400FA025085E243
:1007E000070055E1F4FFFF3AF087BDE8080C001F51
:1007F000FF4F2DE90CD04DE20390A0E10140A0E1B4
:100800007F0300FA5CA29FE5020050E30080A0E3B2
:1008100008808DE504509AE540629F1540629F056F
:100820000570A0E106B0A0E10B0000EA0C009DE518
:10083000B00400FA000050E3016046020600000A1E
:100840000C009DE5A80400FA018088E2090058E147
:100850000B60A0E10100C7E40100000A000056E3BC
:10086000F1FFFF1A0C009DE52E10A0E3A50400FA8D
:10087000010019E30300000A0C009DE54610A0E307
:10088000A00400FAFBFFFFEA20009AE5BE00D0E1D9
:10089000010050E32B00001A0060A0E3260000EAEC
:1008A00000009AE508109AE5800084E031FF2FE10E
:1008B00018309AE500109AE50520A0E10400A0E1B7
:1008C00033FF2FE10130A0E300308DE514C09AE53D
:1008D00000109AE508308DE20520A0E10400A0E1B7
:1008E0003CFF2FE1010050E30070A0E1B000D50112
:1008F000B810DD01010050010A00000AB000D5E186
:10090000FF1000E20C009DE57E0400FAB000D5E186
:100910002014A0E1000000EA0710A0E10C009DE512
:10092000780400FAFBFFFFEA00009AE5025085E236
:10093000010080E2016086E200008AE5A90056E13C
:10094000D6FFFF3A370000EA0970A0E150B0A0E3FB
:1009500020009AE508109AE5BE60D0E18600A0E18B
:10096000070050E18707A0812068A08100009AE578
:10097000800084E031FF2FE100009AE5800084E0F0
:10098000B0B0C0E100009AE5E910A0E3800084E087
:10099000B010C0E100209AE5010046E2821084E038
:1009A000B000C1E10000A0E3060050E1B010D53175
:1009B00000309A358020843083208230B010C231DC
:1009C0000250853201008032F6FFFF3A00209AE59E
:1009D000D000A0E3821084E0B000C1E100009AE5FD
:1009E000801084E0B000D1E1800010E3FCFFFF0A3A
:1009F000800050E30300000A0C009DE50910A0E10F
:100A0000400400FAFBFFFFEAFF00A0E3B000C1E1F1
:100A100000009AE5060080E000008AE5000066E23A
:100A2000807097E0C9FFFF1A0C109AE50F0204E2EC
:100A300031FF2FE1090058E10300000A0C009DE599
:100A40004C10A0E32F0400FAFBFFFFEA0C009DE529
:100A50003010A0E32B0400FA1CD08DE2F08FBDE82B
:100A600000350C00003E4900080C001F10B5202086
:100A700000F0DCFD002801D100F0E6FD0A2000F0C6
:100A80003AEF0221002000F087FC022000F024FE53
:100A900010BD0000F0B591B000200F9009200007B4
:100AA0000E90002008AB0D900C900B9018715871AF
:100AB0000120D871022000259871002000F0ECFF81
:100AC000012000F0E9FFC24908680268C14810929D
:100AD000824207D0C048109A8242FAD0BF480860CC
:100AE00002681092E4E0109801F000F8070003009B
:100AF000FFF7E6EA185D1F0E344750B268A83E0DB6
:100B0000E0460DF7F6BC0DF50D0DF4F3F20DEAE736
:100B1000022D03D11098032101F00EF8109839002E
:100B200000F0F2FF10980F990D9A0123FFF72EEEB7
:100B3000D9E7109800F05EF90400022D03D1109857
:100B4000042100F0F9FF1098390000F0DDFF109843
:100B50000F990D9A2300FFF74CEEC4E71098390067
:100B600000F0D2FF10980E990C9AFFF740EBBAE70D
:100B7000109800F03FF90E90109800F03BF90C909F
:100B8000FBE0109800F036F90F90109800F032F961
:100B90000D90F2E0109800F0A9FF0500012801D1A6
:100BA000012100E00021109800F0C6FFE5E0109858
:100BB000390000F0A9FF012000F046FD002000F000
:100BC00059FD90E7109800F015F9E1229202811A80
:100BD000904222D00DDC4B21C901401A16D0401A98
:100BE00016D04900401A15D0401A1ED1FF24C33434
:100BF0001CE0881A13D0E121C902401A11D0801AD2
:100C000011D07749401810D110240FE0754C0DE039
:100C1000754C0BE0A924A40008E06F2406E03724FB
:100C200004E01B2402E0152400E0E02410983900C1
:100C300000F06AFF1098210000F06CFF642000F0C3
:100C40005AEE50E7694C2178109800F05DFF20784B
:100C5000641C0028F7D146E71098390000F054FFD3
:100C6000012000F039FD0B9880473CE705A800F013
:100C70005FFA05AE0F3600243778761E380909284A
:100C800001D8303000E0373001061098090E00F02E
:100C90003BFF3807000F092801D8303000E037301B
:100CA00001061098090E00F02FFF641C102CE3D3EE
:100CB000002135E0109800F09DF80400109800F035
:100CC00099F806001098390000F01EFF012000F08E
:100CD00071FC002820D105E071E067E04FE00AE0F8
:100CE00035E021E03100200000F01CFE11E0302151
:100CF00016E04F2114E01098390000F005FF0120A4
:100D000000F058FC002807D1109800F0EFFE00F02A
:100D100005FD0028EDD1EAE7012000F0EDFBE8E752
:100D2000109800F0F1FEDEE6002000F071FC0100FA
:100D3000109800F0E9FE012000F06AFC0100109814
:100D400000F0E2FE022000F063FC0100E8E7284E1C
:100D50000024109800F04EF8A100641C01AA082C91
:100D60005050F6D3002101A800F0BAF9052000F098
:100D7000C2ED30680421084330603900D0E7109894
:100D800000F038F80400109800F034F80A90109839
:100D900000F030F806001098390000F0B5FE33007E
:100DA00010980A9A2100FFF7D6E99CE6109800F007
:100DB00021F801000F901098FFF79AEC93E6109835
:100DC000390000F0A1FE10980F990D9A0023ADE6AE
:100DD000E00B001F00700070006000700800002031
:100DE00070B8FAFF930A000049050000E40B001FE9
:100DF00008200070F8B5060000246D46300000F0B1
:100E000075FE2855641C042CF8D30098F8BD00002A
:100E1000FEB58C460021040020288E4601D2002217
:100E200001E00122203C6146497801265A485B4D89
:100E300000291AD0012933D0022957D10C2151435E
:100E4000030008180F00009081683000A0400142A4
:100E500043D0514BD9593B004F4F8143F950009932
:100E6000496808430099486042E00C21514303005F
:100E700008180F00029081683000A04001420AD09B
:100E8000454BD9593B00444F8143F9500299496879
:100E90008143029816E051014919CB68834317E05A
:100EA0000C215143030008180F00019081683000A5
:100EB000A040014208D0D9590143D951019949684C
:100EC00081430198416013E051014919CB68034304
:100ED000CB600B6983430B610AE051014919CB6870
:100EE0008343CB600B691843086101E0012086460B
:100EF00061460878002806D1500140190168330086
:100F0000A340994305E05001401903683100A14016
:100F10001943016061468878002810D0012815D057
:100F200002281ED0032823D1500140194369310003
:100F3000A1400B4343618369194381611AE0500169
:100F4000401943693100A1408B4305E0500140192D
:100F500043693100A1400B43436183698B43836143
:100F600008E05001401943693100A1408B43E1E79B
:100F7000012086466146C878002805D150014019F5
:100F8000C169A640B14304E050014019C169A640BF
:100F90003143C1617046FEBD440D001F00900070DA
:100FA000012320280AD20D4A83400C480A603C30B5
:100FB000121DC8604A60001D8B600BE02038074A94
:100FC0008340064820320A605C30121DC8604A60C7
:100FD000001D8B60086100207047000004900070C5
:100FE000C206D20E01219140024A400940018018F8
:100FF0000160704740900070024B490043521288D4
:101000004252704741410000F0B50A4C4D00445334
:10101000094C44535C1E4453002405E016880F1904
:101020007F00C653921C641C9C42F7D30349415372
:10103000F0BD000050500000E9E90000D0D00000F1
:1010400010B50B4C002061690A4A090A91420DD083
:101050000021201D00F036F805480021103000F076
:1010600031F80021200000F02DF8012010BD000013
:1010700000700170BEADDE00064B10B5596904006A
:101080000020054A090A914201D0012010BD59698A
:10109000217010BD00700170BEADDE0010B50400FF
:1010A000FFF7CEFF044B05495964034A0449143A3B
:1010B00051621C7010BD000014700170FECAFE0A5F
:1010C00001350115034A044B9A61044A403B5A62B8
:1010D00001607047FECAFE0A4070017001350115BB
:1010E000030070B50E480F4A0400167840340325FB
:1010F000002E12D108261670002903D0D1600A4AAA
:1011000010215160094A01210905D16020221900EE
:10111000FEF7A0EF012000042060280070BD000051
:1011200000F100705C0D001F00F6007000400070C0
:1011300070B5064D044E2968AC018C43EC604ECE70
:101140004EC02C6170BD000000F0007000400070C7
:1011500003490180034901800021C9430180704790
:1011600060600000D0D00000F0B501251E00164BD5
:10117000ED054C000353154F015B0B0603D40753D9
:101180006D1EF9D203E0002D01D10320F0BD8B06C6
:101190009B0F01D18B0701D50520F0BD44231942D7
:1011A00001D00420F0BD09060CD50021C94301532C
:1011B000005B308010883188884201D00620F0BD65
:1011C0000120F0BD0220F0BD707000005050000002
:1011D000024B49004352128842527047404000007F
:1011E000024901800021C94301807047505000002E
:1011F000024A49004252024A4252704720200000EF
:10120000D0D00000F0B5094C4E0084535C1E8453CE
:10121000002405E015880F197F00C553921C641C3B
:101220009C42F7D302498153F0BD0000E8E800007A
:10123000D0D0000055225201602182185181152220
:1012400092018218918280221152F0210180704710
:10125000F0B54E005521012494467122A4054901A0
:101260001F00451870216981815B0B0603D46A81D8
:10127000641EF7D203E0002C01D10320F0BD8A06E2
:10128000920F01D18A0701D50520F0BD44221142F9
:1012900001D00420F0BD09060CD5F0210180805B4F
:1012A0003880604600883988884201D00620F0BD29
:1012B0000120F0BD0220F0BD490B49034900081888
:1012C0005521490129224018428170475522520177
:1012D000F0218018418170475522520180218218E7
:1012E000518115229201302180188182704770B59A
:1012F0000E000500140000F018F8710B49034900B6
:10130000152292014919581E89188882002005E08B
:10131000218832185200A952A41C401C9842F7D3CD
:1013200031002800FFF7C8FF70BD490B4903490091
:101330000818552149012522401842817047402351
:1013400049004352128842527047000070B50500B0
:101350004024002800D100240D480463066B1E20A1
:1013600000F0B4EA03202043B04201D0012070BD58
:101370000848012D05D102000078012108431070B2
:1013800003E00178490849000170002070BD0000A9
:10139000C0200070000F001F024A1170024908703F
:1013A00070470000FD0B001FD00D001F0B490022ED
:1013B0004A63012801D1002000E00220084A801879
:1013C00088630649403908688003800FFBD00328F2
:1013D00001D007207047002070470000C020007037
:1013E000F005011100000FE1400080E300F021E171
:1013F0001EFF2FE10100F8B54020002900D1002098
:101400003B4F050000241C303863394E403E3168A4
:101410008903890FFBD0374A13789A0703D503292C
:1014200001D020210C433A6B7C210A40824201D03A
:101430004020044328000C30386332689203920F36
:10144000FBD09B0703D5032A01D0802214433A6BBB
:101450007C210A40824202D0FF20401C04431E200F
:1014600000F034EA281D3900386332689203920F85
:10147000FBD0204F3B789B0704D5032A02D00122E2
:10148000520214431A49096B7C221140814202D056
:101490000120800204431E2000F018EA14490D6365
:1014A00030688003800FFBD0114AC03A126B1205DE
:1014B000FF232233520D9A4204D13E78B60701D55C
:1014C000032803D19A4204D0012802D00120C0028F
:1014D0000443086B7C221040A84202D00120000384
:1014E00004433878FD21084038702000F8BD000022
:1014F000C0200070000F001F70B50500FFF77AFFD5
:101500000400012D06D10020FFF720FF002801D0A4
:1015100010200443200070BDF8B54024002800D1FD
:101520000024224E201D3063204D403D2968890350
:10153000890FFBD1316B7C27394081422CD12000AF
:101540000C30306329688903890FFBD1316B394036
:10155000814221D11E2000F0BAE920001C30306306
:1015600029688903890FFBD1316B3940814213D13E
:101570001E2000F0ACE920003C303063296889036C
:10158000890FFBD0012901D10420F8BD022903D025
:10159000316B3940814201D00620F8BD044A022156
:1015A0001078084310700020F8BD0000C0200070C3
:1015B000000F001F10B50400012805D1FFF7C6FE7B
:1015C000002801D0052010BD2000FFF7A5FF10BDA9
:1015D00000000FE100100FE1C01081E301F021E1F4
:1015E0001EFF2FE100000FE100100FE1801081E3EA
:1015F00001F021E11EFF2FE10000A0E100F021E158
:101600001EFF2FE10148407870470000FD0B001FCE
:1016100005490968021D01209040014201D00120C6
:10162000704700207047000080200070034A0100CE
:10163000D26801200A4200D00020704700B001703B
:10164000022800D1FEE7704702000120074900068A
:1016500010B5002A086300D100E04863012000F0C3
:101660004AE903480078FFF719FD10BD00B001708A
:10167000890D001FF8B50400002568460095FFF7A6
:10168000FBFC6B46187807210843FFF707FD01268E
:1016900076060E4F012C13D00D49602048630D488B
:1016A0000560FFF7A0EFFFF79EEE002C05D170104C
:1016B00078633E63142000F01EE900F071FAF8BD73
:1016C0003E63142000F016E97E63F8BD00B001709F
:1016D0000020017000A0017070B50E4D0E4A6978AF
:1016E000947800290ED0032C08D1012901D10120C2
:1016F00000E0022000F074F8040000E054780020BC
:10170000687005E00328907000D1022000F068F8AE
:10171000200070BDD40D001FFD0B001F030070B52D
:1017200001D12A4D06E0012B01D1294D02E0022B07
:1017300006D1284D284E3078032803D003243AE000
:1017400002243EE00020FFF731FE040033D123489D
:10175000022141638563214A403A11688903890F58
:10176000FBD0032901D0092425E001254563816BC5
:1017700010688003800FFBD0012B01D0022B02D117
:10178000032806D003E0002B03D1012801D00D244B
:1017900011E01248C038006B0005FF222232400DD4
:1017A000904201D1022B01D1904204D0181D8540F6
:1017B0000D4200D10C24002B03D13078FD210840CC
:1017C00030700120FFF798FE204370BDADDE245835
:1017D0002556468770432724000F001FC020007045
:1017E000F8B5354C05002669344807683448407818
:1017F000854260D03348012D40D0022D58D1C16DB3
:10180000002901D0022088472C4A2032D0880121AB
:1018100049038843D0802948816A0222914381622A
:1018200030218F43076001203100014321610B20EB
:10183000401EFDD2244808402249091F097800298A
:101840001F49097805D10902FF39491E0843502173
:1018500003E00902FE390843402106000E4333210C
:101860000903300088431121490307000F43FFF7A4
:10187000B0EE26612761FFF7C0EE19E033210903BE
:101880008E431121090332000A432261216949076D
:10189000FCD40D49491C1140216130218F43074A76
:1018A000102139431160C16D002901D00120884702
:1018B000034948784D70F8BD0020007000B00170F9
:1018C000FD0B001FD40D001F0DF0FFFF10402DE990
:1018D0000040A0E14AFFFFFA020050E30600A01317
:1018E0002700A003940000E0010050E2FDFFFF2A62
:1018F0001080BDE810402DE90040A0E140FFFFFA54
:10190000020050E310009F1510009F05940000E0B6
:10191000010050E2FDFFFF2A1080BDE864190000BD
:1019200058980000F8B50E000300FF2807D91800EA
:10193000FF381738EA2802D32348834201D902240A
:101940003CE022480078032801D0032436E0002040
:10195000FFF72CFD040031D11D4F7B63B96B1C4D8B
:10196000403D28688003800FFBD0032801D0082465
:1019700024E0002901D00A2420E0F86B002801D0DF
:101980000B241BE00120FFF711FD040016D17B633F
:10199000BE6328688003800FFBD0032801D0092490
:1019A0000CE07B63B86B29688903890FFBD00129A0
:1019B00001D10D2402E0B04200D00C240120FFF739
:1019C0009BFD2043F8BD000002020000000F001F35
:1019D000C0200070F0B54E005521012494467122BC
:1019E000A40549011F00451870216981815B0B0620
:1019F00003D46A81641EF7D203E0002C01D10320D6
:101A0000F0BD8A06920F01D18A0701D50520F0BDED
:101A10004422114201D00420F0BD09060CD5F0216A
:101A20000180805B3880604600883988884201D018
:101A30000620F0BD0120F0BD0220F0BD552330B5D9
:101A4000074C5B01C3185C811525AD016410451975
:101A5000AC82A0245C8112884900425230BD000053
:101A6000AAAA000055225201F02180184181704736
:101A7000552110B5074C490141184C8115239B0194
:101A80006210C018828280234B814C818282302177
:101A9000818210BDAAAA000010B51049002409686F
:101AA00000280BD0012811D10800203005228273B4
:101AB0000622427340200A4C88620DE0032088759C
:101AC000042048758020074C086105E002000220D0
:101AD00005490023FFF7B4FD200010BD000C001FD6
:101AE000006000700070007000000A90C168C907B3
:101AF000C90FFBD0007C7047C068C007C00F70479B
:101B000001C08FE21CFF2FE1C2689203D20FFBD10C
:101B100001747047032210B514034466C3681B07A1
:101B20009B0FFBD103234366002900D12243816030
:101B300001681143016010BD70B5144B0500002011
:101B400001229D4200D10022114B6B662B681C00C4
:101B5000044350200B00FEF7B4EA050904060A0C02
:101B60000F000C4900E00C490C43286509E00821EE
:101B7000FAE70121C904F7E70B0008490220FFF743
:101B80005FFD28682043286070BD00000070007071
:101B90000C000C00040004000800080004000A9077
:101BA00010B51249104C602086B0486310490020DF
:101BB0000860FFF718EDFFF716EC0E490820C86023
:101BC0000120FFF798EE002001A9FFF7E9F9059938
:101BD0002B20086004991420086002206060012016
:101BE00020600548E060FEE70030007000200170D2
:101BF00000A0017000400070BDF7D9EC10402DE945
:101C000018D04DE20742A0E397FBFFFA04108DE2E3
:101C10000500A0E3E1FCFFFA04009DE5000090E56B
:101C20000C109DE5010010E10C00000A58009FE532
:101C3000080084E5040084E5000084E54C009FE58D
:101C4000280084E5240084E5200084E540009FE529
:101C5000980084E5940084E5900084E5070000EA9C
:101C600030009FE5080084E5040084E5000084E579
:101C700024009FE5280084E5240084E5200084E515
:101C800083FBFFFA18D08DE21080BDE88922222262
:101C90007F0011A0714C0000055222251FF00000AA
:101CA00055210A4A490141184A8115239B015210C6
:101CB000C3189A82064A4A8106490180012101809F
:101CC000054901800021018070470000AAAA000098
:101CD000E0E00000A0A0000090900000FFB500250B
:101CE0000999ED431F0006002320401EFDD219482C
:101CF000022901D1012100E0002101706D1E01992E
:101D0000300000F065F80400012804D1019930008A
:101D100000F05EF80400022C01D1002DEED10198F4
:101D20004000305A012C38800AD0052C03D13000F5
:101D300000F09CF801E008483080200004B0F0BDBD
:101D4000029839880088884201D10120F6E70720EF
:101D5000F4E70000040C001FF0F00000552330B53C
:101D6000074C5B01C3185C811525AD016410451952
:101D7000AC82044C5C8112884900425230BD0000A4
:101D8000AAAA0000A0A0000001C08FE21CFF2FE162
:101D90000149018070470000F0F0000070B5552245
:101DA000084D5201821855811524A4016B100419A5
:101DB000A382054E56815581A382044A49004252AE
:101DC00070BD0000AAAA0000808000003030000032
:101DD000F8B5022200924022202504234900445AEB
:101DE000465A475A744026001640445A67401740E6
:101DF0003E4324D01C4B1B78002B10D07309234288
:101E00000DD0435A405A43401A402AD0510901424A
:101E100027D0009A1040814223D10520F8BD7308D5
:101E200023421ED0435A405A43401A4019D0510809
:101E3000014216D02840814213D10320F8BD425AF6
:101E4000445A62401C00944305D0425A405A4240D2
:101E50001800904301D10420F8BD1A4201D101209D
:101E6000F8BD0220F8BD0000040C001F5521064AF1
:101E7000490141184A8115239B015210C0188282E2
:101E80000248488170470000AAAA0000F0F0000054
:101E9000F0B50E00050014001F0000F013F8781EC6
:101EA0007200A852002005E0218833185B00E95237
:101EB000A41C401CB842F7D30148A852F0BD000052
:101EC000292900005523064A5B01C3185A811523AE
:101ED0009B015210C3189A82024A4900425270472D
:101EE000AAAA000025250000034901800180842260
:101EF000115202490180704760600000F0F000005C
:101F0000F0B50E4A55250F4F0D4C6D015600000BD4
:101F100000030780078084210F52048041194E81FD
:101F200015239B01C3189A82074B4B810188418876
:101F3000818B04800029EAD1F0BD000055550000D6
:101F4000F0F0000060600000909000000349018004
:101F500001808022115202490180704760600000B8
:041F6000F0F000009D
:040000051F40000098
:00000001FF
